:100000000C9434000C94FF000C9451000C9451009B
:100010000C9451000C9451000C9451000C9451001C
:100020000C9451000C9451000C9451000C9451000C
:100030000C9451000C9451000C9451000C945100FC
:100040000C9451000C9451000C9451000C945100EC
:100050000C9451000C9451000C9451000C945100DC
:100060000C9451000C94510011241FBECFEFD8E026
:10007000DEBFCDBF12E0A0E0B1E0ECEEFAE002C0DE
:1000800005900D92A438B107D9F722E0A4E8B2E0B8
:1000900001C01D92AC38B207E1F70E941E010C941A
:1000A00074050C94000085B943984498459A000063
:1000B00045988DEE92E00197F1F700C00000089599
:1000C00085B9439A4498459A0000459889EF90E095
:1000D0000197F1F700C00000089587B1886387B9E0
:1000E0008FEF84B987E893E10197F1F700C0000032
:1000F00088E30E9453008CE00E94530086E00E9437
:10010000530081E00E94530080E80E94530008954C
:10011000CF93DF93EC018881882331F021960E94F0
:10012000600089918111FBCFDF91CF910895CF932A
:10013000DF93EC018F8580938602CE010E948800B8
:10014000FE013F969E0182918183E217F307D9F762
:10015000809186028883188ADF91CF91089581E08B
:100160000E94530080E80E9453000895569A5E98BA
:1001700083E991E10197F1F700C000005E9A0895CC
:1001800056984E99FECF4E9BFECF4E99FECF0895C6
:1001900088E090E04E9BFECF2AE02A95F1F74E9B37
:1001A00007C020918602220F21602093860205C09D
:1001B00020918602220F209386024E99FECF01974E
:1001C00049F780918602089580E480937C0083E85B
:1001D00080937A000895ECE7F0E09081907F8F7033
:1001E000892B8083EAE7F0E08081806480838081CE
:1001F00086FDFDCF809178009091790008951F923F
:100200000F920FB60F9211248F939F9380918402C7
:1002100090918502892B39F481E090E090938502DA
:100220008093840204C010928502109284029F91F0
:100230008F910F900FBE0F901F901895CF93DF9363
:1002400000D000D01F92CDB7DEB70E946D000E9493
:10025000AF000E94E40052985A9AE9E6F0E08081EB
:1002600082608083E89A0E94AF0080E091E00E9463
:1002700088002FE78AE196E0215080409040E1F726
:1002800000C00000789400E010E0AA24A394B12CF0
:1002900080E090E00E94EB00BC01990F880B990B65
:1002A0000E941D0420E030E048EC52E40E94D20499
:1002B00020E030EC4FE754E40E9473039B01AC0153
:1002C00060E070E088EC92E40E9401036B017C0125
:1002D0000E94B6000E94C0000E94C80080938A025B
:1002E0000E94C800809387020E94C8008093890200
:1002F0000E94C80080938B020E94C80080938802ED
:100300008091840290918502892B09F076C00E9429
:10031000AF0081E191E00E94880080918A024AE06A
:10032000BE016F5F7F4F90E00E943F05CE010196B6
:100330000E94880084E191E00E94880080918702F9
:100340004AE0BE016F5F7F4F90E00E943F05CE0103
:1003500001960E94880086E191E00E9488008CE16D
:1003600091E00E948800C701B6010E94E503DC010C
:10037000CB014AE0BE016F5F7F4F0E943F05CE0177
:1003800001960E9488008FE191E00E94880080EC35
:100390000E94530081E291E00E94880080918902CE
:1003A0004AE0BE016F5F7F4F90E00E943F05CE01A3
:1003B00001960E94880084E191E00E94880080916B
:1003C0008B024AE0BE016F5F7F4F90E00E943F05C5
:1003D000CE0101960E94880084E291E00E9488008C
:1003E0004AE0BE016F5F7F4F8FED90E00E943F05B6
:1003F00086E291E00E948800FAC00E94AF009090CF
:1004000089028BEF890D893198F520E030E040E2D8
:1004100051E4C701B6010E94CD0488234CF120E0CD
:1004200030E040EA51E4C701B6010E946E0318169D
:10043000FCF080918A028035D8F48BE291E00E9432
:1004400097000130110551F480EC0E9453008CE3B9
:1004500091E00E94880000E010E0C9C080EC0E949A
:1004600053008DE491E00E9488000A2D1B2DBFC02F
:1004700020E030E040EF51E4C701B6010E94CD0416
:100480001816DCF48EE591E00E949700013011050A
:1004900051F480EC0E9453008EE691E00E948800A7
:1004A00000E010E0A4C080EC0E9453008FE791E0D0
:1004B0000E9488000A2D1B2D9AC020E030E040E207
:1004C00051E4C701B6010E946E038823DCF480E981
:1004D00091E00E9497000130110551F480EC0E94D8
:1004E000530081EA91E00E94880000E010E07FC0A4
:1004F00080EC0E94530082EB91E00E9488000A2D5C
:100500001B2D75C023E02915D8F084EC91E00E94E2
:1005100097000130110551F480EC0E9453008DE4E6
:1005200091E00E94880000E010E061C080EC0E9431
:10053000530085ED91E00E9488000A2D1B2D57C0C5
:1005400088E28915D8F486EE91E00E949700013088
:10055000110551F480EC0E94530087EF91E00E9456
:10056000880000E010E043C080EC0E9453008AE065
:1005700092E00E9488000A2D1B2D39C080918A02CA
:100580008135D8F08CE192E00E949700013011058E
:1005900051F480EC0E9453008DE292E00E948800AA
:1005A00000E010E024C080EC0E9453008FE392E052
:1005B0000E9488000A2D1B2D1AC080E592E00E943F
:1005C00097000130110551F480EC0E94530081E640
:1005D00092E00E94880000E010E009C080EC0E94D8
:1005E000530082E792E00E9488000A2D1B2D9FE3B2
:1005F0002DE083E0915020408040E1F700C00000F2
:1006000047CE5058BB27AA270E9419030C94930485
:100610000E94850438F00E948C0420F039F49F3F3A
:1006200019F426F40C9482040EF4E095E7FB0C9484
:100630007C04E92F0E94A40458F3BA1762077307D9
:100640008407950720F079F4A6F50C94C6040EF4FF
:10065000E0950B2EBA2FA02D0B01B90190010C01D2
:10066000CA01A0011124FF27591B99F0593F50F4EA
:10067000503E68F11A16F040A22F232F342F442742
:10068000585FF3CF469537952795A795F04053953A
:10069000C9F77EF41F16BA0B620B730B840BBAF00A
:1006A0009150A1F0FF0FBB1F661F771F881FC2F775
:1006B0000EC0BA0F621F731F841F48F48795779589
:1006C0006795B795F7959E3F08F0B0CF9395880F43
:1006D00008F09927EE0F9795879508950E94580482
:1006E00008F481E008950E9487030C9493040E940B
:1006F0008C0458F00E94850440F029F45F3F29F0F3
:100700000C947C0451110C94C7040C9482040E9434
:10071000A40468F39923B1F3552391F3951B550B6A
:10072000BB27AA2762177307840738F09F5F5F4FC4
:10073000220F331F441FAA1FA9F335D00E2E3AF003
:10074000E0E832D091505040E695001CCAF72BD01B
:10075000FE2F29D0660F771F881FBB1F261737076C
:100760004807AB07B0E809F0BB0B802DBF01FF279E
:1007700093585F4F3AF09E3F510578F00C947C04FB
:100780000C94C7045F3FE4F3983ED4F386957795C5
:100790006795B795F7959F5FC9F7880F911D969557
:1007A000879597F90895E1E0660F771F881FBB1FB3
:1007B000621773078407BA0720F0621B730B840B60
:1007C000BA0BEE1F88F7E09508950E94EC03689439
:1007D000B1110C94C70408950E94AC0488F09F578F
:1007E00098F0B92F9927B751B0F0E1F0660F771F55
:1007F000881F991F1AF0BA95C9F714C0B13091F04B
:100800000E94C604B1E008950C94C604672F782FA7
:100810008827B85F39F0B93FCCF38695779567950F
:10082000B395D9F73EF490958095709561957F4F7B
:100830008F4F9F4F0895E89409C097FB3EF4909521
:100840008095709561957F4F8F4F9F4F9923A9F0A9
:10085000F92F96E9BB279395F69587957795679538
:10086000B795F111F8CFFAF4BB0F11F460FF1BC07C
:100870006F5F7F4F8F4F9F4F16C0882311F096E90F
:1008800011C0772321F09EE8872F762F05C06623BD
:1008900071F096E8862F70E060E02AF09A95660F76
:1008A000771F881FDAF7880F9695879597F908952F
:1008B000990F0008550FAA0BE0E8FEEF1616170671
:1008C000E807F907C0F012161306E407F50798F0D9
:1008D000621B730B840B950B39F40A2661F0232BF2
:1008E000242B252B21F408950A2609F4A140A6956E
:1008F0008FEF811D811D089597F99F6780E870E053
:1009000060E008959FEF80EC089500240A94161685
:10091000170618060906089500240A9412161306ED
:10092000140605060895092E0394000C11F488237B
:1009300052F0BB0F40F4BF2B11F460FF04C06F5F97
:100940007F4F8F4F9F4F089557FD9058440F551F6D
:1009500059F05F3F71F04795880F97FB991F61F041
:100960009F3F79F087950895121613061406551FB8
:10097000F2CF4695F1DF08C0161617061806991F24
:10098000F1CF86957105610508940895E894BB2719
:1009900066277727CB0197F908950E94580408F439
:1009A0008FEF08950E94E5040C9493040E9485043F
:1009B00038F00E948C0420F0952311F00C947C04F4
:1009C0000C94820411240C94C7040E94A40470F3B4
:1009D000959FC1F3950F50E0551F629FF001729FE4
:1009E000BB27F00DB11D639FAA27F00DB11DAA1FF3
:1009F000649F6627B00DA11D661F829F2227B00D40
:100A0000A11D621F739FB00DA11D621F839FA00DCA
:100A1000611D221F749F3327A00D611D231F849F1A
:100A2000600D211D822F762F6A2F11249F57504071
:100A30009AF0F1F088234AF0EE0FFF1FBB1F661FEC
:100A4000771F881F91505040A9F79E3F510580F0B5
:100A50000C947C040C94C7045F3FE4F3983ED4F3F9
:100A6000869577956795B795F795E7959F5FC1F759
:100A7000FE2B880F911D9695879597F90895BB27B2
:100A80004A3031F4992322F4BDE2909581959F4F2D
:100A90000C944B05BB27FB015527AA27880F991FEC
:100AA000AA1FA41710F0A41B83955051B9F7A05D9D
:100AB000AA3308F0A95DA193009779F7B111B1931A
:100AC0001192CB010C946405DC01FC01672F71913C
:100AD0007723E1F7329704C07C916D937083629124
:0C0AE000AE17BF07C8F30895F894FFCFCD
:100AEC0020202057656C636F6D652121212020200B
:100AFC0000483A002E00252020202000533A0025E3
:100B0C0000543A00DF004320202000566572792003
:100B1C006861707079203C33202020002020202038
:100B2C002028203E6F3C202920202020002020203F
:100B3C00202028203E2E3C20292020202000546FED
:100B4C006F206D75636820776174657221002020B9
:100B5C002020202820592E59272920202020002011
:100B6C00202020202820596F5920292020202000C7
:100B7C004E656564206D6F726520776174657221B6
:100B8C000020202020202820552E552729202020E9
:100B9C00200020202020202820555F5520292120AE
:100BAC0020202000546F6F20636F6C642E2E212048
:100BBC002020202000202020202028204F2E4F20D5
:100BCC00292020202000546F6F20686F742E2E2156
:100BDC0020202020202000202020202028202D77BD
:100BEC002D202921212020202000202020202028F9
:100BFC00202D2E2D202921202020200057686174C3
:100C0C002068617070656E2E2E212020002020201F
:100C1C00202028204F2E6F20293F2020202000202C
:100C2C002020202028206F2E4F202920202020003B
:100C3C0049276D2066696E65203A292020202020E6
:100C4C0000202020202028205E5F5E2029202020EC
:100C5C002000202020202028205E2E5E202920200D
:040C6C002020000044
:00000001FF
